:100000000C946D000C9495000C9495000C94950044
:100010000C9495000C9495000C9495000C9495000C
:100020000C9495000C9495000C9495000C949500FC
:100030000C9495000C9495000C9495000C949500EC
:100040000C9484040C9495000C9499090C947309F5
:100050000C9495000C9495000C9495000C949500CC
:100060000C94CE040C949500B301B901BF01C501F5
:10007000CB01D101D70108030F0316031D0324038D
:100080003B032B033B033203000000080002010086
:100090000003040700000000000000000000000052
:1000A000250028002B0000000000240027002A0063
:1000B000040404040404040402020202020203030E
:1000C0000303030301020408102040800102040816
:1000D0001020010204081020CB0911241FBECFEF0D
:1000E000D8E0DEBFCDBF23E0A6E6B1E001C01D929F
:1000F000A234B207E1F711E0A0E0B1E0EEE3F1E2F3
:1001000002C005900D92A636B107D9F710E0CDE6F2
:10011000D0E004C02197FE010E949210CC36D10796
:10012000C9F70E94740A0C949D100C940000FC0105
:10013000538D448D252F30E0842F90E0821B930B4C
:10014000541710F0CF96089501970895FC01918DF2
:10015000828D981761F0828DDF01A80FB11D5D9629
:100160008C91928D9F5F9F73928F90E008958FEF97
:100170009FEF0895FC01918D828D981731F0828D4B
:10018000E80FF11D858D90E008958FEF9FEF0895A2
:10019000FC01918D228D892F90E0805C9F4F821B06
:1001A00091098F739927089580E090E0892B29F0B9
:1001B0000E94670881110C940000089585ED8093DA
:1001C000BC008091BC0084FDFCCF1092FA01089520
:1001D0004091A801262F30E0240F311D2132310536
:1001E000DCF42091FA012430C9F4FC0180E090E0B5
:1001F000861758F43091A8012191DC01A857BE4F11
:10020000A30FB11D2C930196F3CF8091A801680F25
:100210006093A80180E0089581E0089582E0089548
:10022000E0910502F0910602309729F01092FC014E
:100230001092FB0109940895CF93DF93AC01E091F4
:100240000302F09104023097F1F09091FE01809149
:10025000FD019817C0F090E0292F30E026173707EE
:1002600054F4D901A859BE4FEA01C20FD31F8881A7
:100270008C939F5FF1CF1092FE016093FD01CB0143
:10028000DF91CF910994DF91CF9108950895E09186
:10029000FE018091FD01E81730F4F0E0E859FE4FCF
:1002A000808190E008958FEF9FEF08959091FE0177
:1002B0008091FD01981750F4E92FF0E0E859FE4FC6
:1002C000208130E09F5F9093FE0102C02FEF3FEF4F
:1002D000C90108958091FD0190E02091FE01821BEB
:1002E00091090895CF93DF9300D0CDB7DEB7CB014E
:1002F000642F49835A830E94E8004981842F5A81E0
:10030000952F0F900F90DF91CF910895CF93DF93AA
:100310001F92CDB7DEB7698361E0CE0101960E94DE
:10032000E80081E090E00F90DF91CF91089508956B
:1003300080E090E00895CF93DF93477055276627BC
:100340007727FA013197EC01A881B981E730F105EF
:1003500020F4EC5CFF4F0C9492101496ED91FC91FC
:10036000159761E029C01496ED91FC91159765E011
:1003700023C01496ED91FC91159764E01DC014966E
:10038000ED91FC91159766E017C01496ED91FC91E4
:10039000159762E011C01496ED91FC9115976AE0F3
:1003A0000BC01496ED91FC91159768E005C014966A
:1003B000ED91FC91159769E0DF91CF910994CF936E
:1003C000DF93EC01CB01BA0126E030E040E050E0E1
:1003D0000E947310623071058105910559F18CF40A
:1003E0006115710581059105F1F061307105810597
:1003F0009105C1F5E881F9810480F581E02D65E082
:100400002DC0643071058105910511F1D4F065307E
:1004100071058105910531F5E881F9810480F58147
:10042000E02D66E01BC0E881F9810480F581E02DB4
:1004300064E014C0E881F9810480F581E02D61E079
:100440000DC0E881F9810480F581E02D63E006C0EC
:10045000E881F9810480F581E02D62E0CE01DF9131
:10046000CF910994DF91CF91089543705527662766
:100470007727DC01ED91FC910480F581E02D42307D
:1004800051056105710571F0433051056105710534
:1004900059F0413051056105710511F065E005C065
:1004A00066E003C06AE001C069E00994CF93DF937E
:1004B000EC01CB01BA0123E030E040E050E00E94C3
:1004C0007310613071058105910581F0623071050D
:1004D0008105910591F0672B682B692BC1F4E881A8
:1004E000F9810480F581E02D64E00DC0E881F98197
:1004F0000480F581E02D61E006C0E881F981048087
:10050000F581E02D62E0CE01DF91CF910994DF917A
:10051000CF9108954370552766277727DC01ED9129
:10052000FC910480F581E02D423051056105710593
:1005300071F0433051056105710559F041305105A5
:100540006105710511F062E005C063E003C061E080
:1005500001C060E00994CF93DF93EC01E881F98159
:100560000480F581E02D8A81811102C060E001C024
:1005700062E0CE010995E881F9810480F581E02DE2
:100580008A81811102C061E001C063E0CE0109955A
:100590008CA59DA58230910538F0880F991F880F92
:1005A000991F05970197F1F7E881F9810480F5819A
:1005B000E02D8A81811102C060E001C062E0CE01BD
:1005C000DF91CF910994CF93DF93EC0120E030E0ED
:1005D000A9016C897D898E899F890E941310181644
:1005E0001CF4E8A9F9A902C0EAA9FBA9DF91CF91FF
:1005F00009940F931F93DC011396EC910E2F10E0DA
:1006000009301105C0F5F801E55CFF4F0C9492101C
:10061000DC01ED91FC910084F185E02D29C0DC0125
:10062000ED91FC910284F385E02D22C0DC01ED9177
:10063000FC910484F585E02D1BC0DC01ED91FC915B
:100640000684F785E02D14C0DC01ED91FC91008853
:10065000F189E02D0DC0DC01ED91FC910288F38958
:10066000E02D06C0DC01ED91FC910488F589E02DB8
:100670001F910F9109941F910F9108950F931F934C
:1006800061E0009123021091240220912502309113
:10069000260280911F0290912002A0912102B09128
:1006A0002202081719072A073B0709F060E087E0D4
:1006B00092E01F910F910C9486010E949810FC010A
:1006C000848DDF01A80FB11DA35ABF4F2C91848DDB
:1006D00090E001968F739927848FA689B7892C9310
:1006E000A089B1898C9180648C93938D848D9813AB
:1006F00006C00288F389E02D80818F7D8083089574
:1007000090E0FC01E857FF4F3491FC01EC53FF4FA0
:100710002491FC01E055FF4FE491EE2309F43BC026
:10072000332339F1333091F038F43130A9F03230DD
:1007300001F584B58F7D12C0373091F03830A1F0CB
:100740003430B9F4809180008F7D03C080918000A7
:100750008F77809380000DC084B58F7784BD09C0EA
:100760008091B0008F7703C08091B0008F7D80931F
:10077000B000F0E0EE0FFF1FE456FF4FA591B491DB
:100780008FB7F894EC91611103C020952E2301C01E
:100790002E2B2C938FBF0895CF93DF93FC012381E1
:1007A000222329F1EC0184810E9454098D810E9449
:1007B00054098B81843011F0883029F48E810E9495
:1007C00054098F8105C0833011F0863019F48E8171
:1007D0000E9454098FA58F3F51F00E9454096EA5C5
:1007E00081E068278FA5DF91CF910C948003DF9182
:1007F000CF910895CF93DF93FC0123812223A1F0B1
:10080000EC010190F081E02D0480F581E02D60E0A5
:1008100009958FA58F3F41F00E9454096EA58FA5C1
:10082000DF91CF910C948003DF91CF910895CF9207
:10083000DF92EF92FF920F931F93CF93DF93FC0110
:100840002381243041F0283031F0233031F026303C
:1008500021F012E003C014E001C013E0EC0128967F
:10086000E12CF12CC62ED12C01E0C6010E2C02C0C9
:10087000959587950A94E2F7688180FD6027FE01CF
:10088000349780810E948003FFEFEF1AFF0A2196C0
:10089000E11658F3DF91CF911F910F91FF90EF90E8
:1008A000DF90CF9008953FB7F8948091F401909134
:1008B000F501A091F601B091F70126B5A89B05C0FE
:1008C0002F3F19F00196A11DB11D3FBFBA2FA92FCF
:1008D000982F8827820F911DA11DB11DBC01CD014C
:1008E00042E0660F771F881F991F4A95D1F7089538
:1008F0002FB7F8946091F0017091F1018091F201AD
:100900009091F3012FBF08951F920F920FB60F928F
:1009100011242F933F938F939F93AF93BF93809115
:10092000F0019091F101A091F201B091F3013091A9
:10093000EF0123E0230F2D3720F40196A11DB11DF7
:1009400005C026E8230F0296A11DB11D2093EF01DB
:100950008093F0019093F101A093F201B093F30121
:100960008091F4019091F501A091F601B091F70109
:100970000196A11DB11D8093F4019093F501A09300
:10098000F601B093F701BF91AF919F918F913F9185
:100990002F910F900FBE0F901F9018951F920F92DE
:1009A0000FB60F9211242F933F934F935F936F9342
:1009B0007F938F939F93AF93BF93EF93FF93809118
:1009C000B900887F803609F49CC068F5883209F444
:1009D0005BC090F4803109F454C038F4882309F4E2
:1009E000F6C0883009F44DC0F6C0883109F44CC017
:1009F000803209F45DC0EFC0803409F468C048F467
:100A0000803309F455C0883309F0E5C08093CB01E9
:100A1000D8C0803509F44FC0883509F45DC08834EA
:100A200009F0D9C0D6C0883909F4C7C0A8F48837FE
:100A300009F467C038F4883609F463C0803709F4D4
:100A400060C0C9C0883809F4B8C0803909F45FC0F3
:100A5000803809F0C0C05BC0803B09F486C038F420
:100A6000803A09F466C0883A09F47FC0B4C0803C7B
:100A700009F4A7C0883C09F4A4C0883B09F48AC0E3
:100A8000AAC08091EE0110C09091ED018091EC011F
:100A9000981770F5E091ED0181E08E0F8093ED01E4
:100AA000F0E0E453FE4F80818093BB0085EC86C06C
:100AB0008093CB018EC0E091ED0181E08E0F809399
:100AC000ED018091BB00F0E0E453FE4F80839091F4
:100AD000ED018091EC016EC0E091ED0181E08E0F9F
:100AE0008093ED018091BB00F0E0E453FE4F8083E2
:100AF0008091F90181116DC081E08093F80184EA51
:100B000061C083E08093FA011092CA01CFCF809137
:100B1000CA01803208F051C0E091CA0181E08E0F15
:100B20008093CA018091BB00F0E0E655FE4F8083C0
:100B3000BDCF85EC8093BC001092FA018091CA0170
:100B4000803230F4E091CA01F0E0E655FE4F1082A9
:100B50006091CA0170E0E091FF01F09100028AEA21
:100B600091E009951092CA0136C084E08093FA01A1
:100B70001092A9011092A801E0910102F0910202E5
:100B800009958091A801811105C081E08093A80199
:100B900010928801E091A90181E08E0F8093A90154
:100BA000F0E0E857FE4F80818093BB009091A9014F
:100BB0008091A801981708F479CF85E88093BC004C
:100BC0000AC085EC8093BC001092FA0104C0109218
:100BD000CB010E94DE00FF91EF91BF91AF919F91F9
:100BE0008F917F916F915F914F913F912F910F90D6
:100BF0000FBE0F901F9018952F923F924F925F92C9
:100C00006F927F928F929F92AF92BF92CF92DF921C
:100C1000EF92FF920F931F93CF93DF9300D000D0FA
:100C2000CDB7DEB71C01FC01C088D188E288F3880B
:100C300084859585A685B785C81AD90AEA0AFB0A6C
:100C400064897589868997899B01AC010E941E0E73
:100C50004B015C01F101648D758D868D978D9B0133
:100C6000AC010E94FF0E9B01AC01C501B4010E94C2
:100C70006B0F0E94DD0FC114D104E104F104A1F453
:100C800062307105810591050CF07CC0F10114A260
:100C900015A216A217A2148A158A168A178A14AAF0
:100CA00015AA16AA17AAFFC0F10104A915A926A919
:100CB00037A91C141D041E041F0404F51016110688
:100CC000120613064CF46C157D058E059F055CF528
:100CD0002281211157C027C00115110521053105B9
:100CE00009F450C06C157D058E059F050CF04AC0B7
:100CF000F1018281882309F445C039C0101611061C
:100D000012061306FCF40027112798010C191D097F
:100D10002E093F09601771078207930724F4F10138
:100D20002281222379F19B01AC0188279927DC01DC
:100D3000821B930BA40BB50BF10184AB95ABA6AB57
:100D4000B7AB20C00115110521053105D9F0882464
:100D5000992454018C189D08AE08BF0868157905C0
:100D60008A059B057CF4F101828181110BC03095CD
:100D70002095109501951F4F2F4F3F4F04AB15AB9A
:100D800026AB37ABF10184A895A8A6A8B7A8811413
:100D90009104A104B10491F480AD91ADA2ADB3ADC5
:100DA00084AF95AFA6AFB7AF81E01C141D041E043D
:100DB0001F040CF080E0F101828341C0F101C4AC5A
:100DC000D5ACE6ACF7ACA7019601C701B6010E940D
:100DD000FF0E2B013C01C501B4010E94BF0D20E0B4
:100DE00030E040E850E40E941E0E20E030E040E891
:100DF0005FE30E94FF0E9B01AC01C301B2010E94A0
:100E00006B0F9B01AC01C701B6010E94FE0E7B0176
:100E10008C01F101E05CFF4F60807180C280D38063
:100E20009301A6010E941310181614F07301860195
:100E3000A701B801F10144AF55AF66AF77AFFFEF3F
:100E40008F1A9F0AAF0ABF0AF10184AA95AAA6AA1F
:100E5000B7AA24AD35AD46AD57ADCA01B901298356
:100E60003A834B835C830E94E40FF10164A375A372
:100E700086A397A329813A814B815C8160E074E26B
:100E800084E799E40E946B0FF101648B758B868B6C
:100E9000978B2281211107C0DC01CB01B058848BD4
:100EA000958BA68BB78B0F900F900F900F90DF91C3
:100EB000CF911F910F91FF90EF90DF90CF90BF9057
:100EC000AF909F908F907F906F905F904F903F90EA
:100ED0002F9008954F925F926F927F928F929F9280
:100EE000AF92BF92CF92DF92EF92FF92CF93DF93B8
:100EF000EC016A017B0120E030E0A901C701B601E5
:100F00000E94B80D87FF04C0F7FAF094F7F8F09448
:100F10008C8C9D8CAE8CBF8CA7019601C501B40151
:100F20000E94B80D882309F449C06CA97DA98EA937
:100F30009FA90E94BF0D2B013C01A7019601C5018D
:100F4000B4010E946B0F9B01AC01C301B2010E946E
:100F50001E0E0E94DD0F6CAB7DAB8EAB9FABA7016D
:100F6000960160E070E080E090E40E946B0F0E94C8
:100F70001E1026E53EE04DE25FE30E941E0E20E0DB
:100F800034E244E759E40E941E0E68AF79AF8AAF9D
:100F90009BAFCC8EDD8EEE8EFF8ECE01DF91CF919A
:100FA000FF90EF90DF90CF90BF90AF909F908F9089
:100FB0007F906F905F904F900C94FC05DF91CF91E4
:100FC000FF90EF90DF90CF90BF90AF909F908F9069
:100FD0007F906F905F904F90089587E092E00E941D
:100FE000560120E931E0AC01429FC001439F900DC2
:100FF000529F900D11249093670180936601109287
:101000001F021092200210922102109222021092CE
:1010100023021092240210922502109226021092AE
:101020004702109248021092490210924A0210920E
:101030003702109238021092390210923A0210923E
:101040002702109228021092290210922A02092ED9
:10105000000CAA0BBB0B0097A105B10561F08093B2
:10106000230290932402A0932502B093260283E1E9
:1010700092E00C94FC050895CF92DF92EF92FF92DC
:101080000F931F93CF93DF936C017A018B01C0E024
:10109000D0E0CE15DF0589F0D8016D918D01D60124
:1010A000ED91FC910190F081E02DC6010995892B0D
:1010B00011F47E0102C02196ECCFC701DF91CF91E0
:1010C0001F910F91FF90EF90DF90CF9008958FE5E3
:1010D00092E00E94C80021E0892B09F420E0822FD1
:1010E00008958F929F92AF92BF92CF92DF92EF922C
:1010F000FF926B017C010E9478044B015C01C60EDB
:10110000D71EE81EF91E0E947804681579058A0525
:101110009B0528F0C616D706E806F906A0F7FF904B
:10112000EF90DF90CF90BF90AF909F908F900895F9
:10113000009769F0FC0101900020E9F73197AF01B9
:10114000481B590BBC018FE592E00C943C0880E0F1
:1011500090E008958F929F92AF92BF920F931F934A
:10116000CF93DF93CDB7DEB7A1970FB6F894DEBF6C
:101170000FBECDBF19A2423008F44AE08E010F5DC8
:101180001F4F842E912CA12CB12CA50194010E94FB
:10119000DC0EE62FB901CA0101501109EA3014F43E
:1011A000E05D01C0E95CD801EC93232B242B252BB7
:1011B00061F7C8010E949808A1960FB6F894DEBFA7
:1011C0000FBECDBFDF91CF911F910F91BF90AF9018
:1011D0009F908F900895EF92FF920F931F93CF935C
:1011E000DF93EC0181E0888F9B8D8C8D981305C077
:1011F000E889F989808185FD24C0F62E0B8D10E0E9
:101200000F5F1F4F0F731127E02E8C8DE8120CC05B
:101210000FB607FCFACFE889F989808185FFF5CF01
:10122000CE010E945F03F1CF8B8DFE01E80FF11D0F
:10123000E35AFF4FF0820B8FEA89FB89808180623D
:1012400007C0EE89FF896083E889F989808180641D
:10125000808381E090E0DF91CF911F910F91FF900B
:10126000EF900895CF93DF93EC01888D8823C9F028
:10127000EA89FB89808185FD05C0A889B9898C919F
:1012800086FD0FC00FB607FCF5CF808185FFF2CF3A
:10129000A889B9898C9185FFEDCFCE010E945F03AB
:1012A000E7CFDF91CF91089590E0FC01EC53FF4F21
:1012B0002491FC01E055FF4F8491882399F090E040
:1012C000880F991FFC01EA55FF4FA591B491FC01CD
:1012D000E456FF4F859194918FB7F894EC91E22BEF
:1012E000EC938FBF08951F920F920FB60F921124A7
:1012F0002F933F934F935F936F937F938F939F931E
:10130000AF93BF93EF93FF938FE592E00E945F034B
:10131000FF91EF91BF91AF919F918F917F916F91CD
:101320005F914F913F912F910F900FBE0F901F90A3
:1013300018951F920F920FB60F9211242F938F932F
:101340009F93EF93FF93E0916F02F0917002808181
:10135000E0917502F091760282FD12C09081809139
:1013600078028F5F8F7320917902821751F0E0919C
:101370007802F0E0E15AFD4F958F8093780201C02A
:101380008081FF91EF919F918F912F910F900FBED0
:101390000F901F901895EFE5F2E01382128288EE0D
:1013A00093E0A0E0B0E084839583A683B78324E034
:1013B00031E03183208325EC30E03587248724EC2D
:1013C00030E03787268720EC30E0318B208B21EC12
:1013D00030E0338B228B22EC30E0358B248B26ECF3
:1013E00030E0378B268B118E128E138E148EECEF1D
:1013F000F2E01682178210861186128613861486F2
:10140000158616861786108A118A128A138A148AFC
:10141000158AE7E0F2E01382128284839583A68323
:10142000B78386E191E091838083E3E1F2E088E293
:1014300091E09183808381E08383148615861686EC
:101440001786108A118A128A138A148A158A168AB4
:10145000178A80E090E0A0E8BFE3808F918FA28F91
:10146000B38F148E158E168E178E80A391A3A2A310
:10147000B3A314A215A216A217A221E030E035A74B
:1014800024A72FEF27A710A611A612A613A629E0BE
:10149000248328E0258324E0268325E0278316A6DD
:1014A00014AA15AA16AA17AA10AE11AE12AE13AE40
:1014B00014AE15AE16AE17AE80935302909354023D
:1014C000A0935502B093560212821086118612869E
:1014D0001386CF010E94CC0340E050E060E87FE338
:1014E00083E192E00C946A07789484B5826084BDAD
:1014F00084B5816084BD85B5826085BD85B5816018
:1015000085BD80916E00816080936E001092810095
:101510008091810082608093810080918100816050
:101520008093810080918000816080938000809111
:10153000B10084608093B1008091B000816080939D
:10154000B00080917A00846080937A0080917A0064
:10155000826080937A0080917A00816080937A0023
:1015600080917A00806880937A001092C100109276
:101570003E0310923F0310924003109241031092D9
:10158000FE021092FF02109200031092010368EB1A
:101590007BE080E090E00E9471080E9453044B01C0
:1015A0005C0128EEC22E23E0D22EE12CF12C0E9409
:1015B0005304DC01CB0188199909AA09BB09883EAB
:1015C0009340A105B10558F021E0C21AD108E10805
:1015D000F10838EE830E33E0931EA11CB11CC11438
:1015E000D104E104F10419F7E0916F02F091700267
:1015F00082E08083E0916B02F0916C021082E091B6
:101600006D02F0916E0280E1808310927702E0918A
:101610007302F091740286E08083E0917102F09190
:101620007202808180618083E0917102F091720288
:10163000808188608083E0917102F09172028081E4
:1016400080688083E0917102F091720280818F7DC9
:1016500080830E9478046093FE027093FF0280935F
:101660000003909301038EE391E00E9498086AE0E2
:1016700070E080E090E00E94710881E080931203A6
:101680008DE00E94540920E030E04FE254E4609184
:101690002B0270912C0280912D0290912E020E94BB
:1016A000B80D882309F453C080E090E0AFE2B4E4C1
:1016B00080932B0290932C02A0932D02B0932E02C4
:1016C00089E492E9A2EBB4E480935302909354022C
:1016D000A0935502B0935602809147029091480220
:1016E000A0914902B0914A02181619061A061B0663
:1016F00074F56091270270912802809129029091DF
:101700002A029B01AC010E941E0E6B017C016091BC
:101710002F027091300280913102909132029B0130
:10172000AC010E94FF0E9B01AC01C701B6010E94F3
:101730006B0F0E94DD0F6093470270934802809305
:10174000490290934A0283E192E00E94FC0540E046
:1017500050E06AE775E483E192E00E946A0720E0C6
:1017600030E04FE254E460912702709128028091AA
:10177000290290912A020E94B80D882309F465C0BD
:10178000C0902B02D0902C02E0902D02F0902E02FF
:1017900046015701B7FAB094B7F8B09420E030E0B2
:1017A0004FE254E4C501B4010E94131018165CF016
:1017B00020E030E04FE254E4C701B6010E94B80DCA
:1017C00087FD03C014C07501640120E030E0A90169
:1017D000C701B6010E94B80D81110FC010923702E7
:1017E000109238021092390210923A0226C0C12C8F
:1017F000D12C9FE2E92E94E4F92EA701960160E036
:1018000074E284E799E40E946B0F9F770E94E40FD3
:1018100060933702709338028093390290933A02B2
:10182000C1E020E030E0A901C701B6010E94131019
:1018300018160CF0C0E0C0931502C0922702D09297
:101840002802E0922902F0922A0284E18093BA00F1
:1018500080E191E090930202809301028CE191E09B
:10186000909300028093FF011092FE011092FD01FF
:101870001092FC011092FB011092FA0181E080931A
:10188000F9011092F80161E082E10E94800361E0B9
:1018900083E10E9480038091B9008E7F8093B9001C
:1018A0008091B9008D7F8093B90088E48093B8005F
:1018B00085E48093BC008DEE97E0909304028093C2
:1018C00003028EE393E0909306028093050284EF77
:1018D000882E99249394A12CB12C0E947804672B14
:1018E000682B692B41F40E947804623071058105F0
:1018F000910508F4DFC00E94780460935B02709346
:101900005C0280935D0290935E02C0905702D0907B
:101910005802E0905902F0905A026C157D058E0530
:101920009F0540F4609357027093580280935902C8
:1019300090935A02C0905702D0905802E0905902FA
:10194000F0905A029B01AC012C193D094E095F0928
:1019500069017A013AEFC316D104E104F10408F4F5
:10196000A9C06093570270935802809359029093D4
:101970005A0280920A0390920B03A0920C03B09239
:101980000D0310920E0310920F0310921003109289
:1019900011038091020390910303A0910403B0917D
:1019A00005038093060390930703A0930803B09365
:1019B00009030E94780460930203709303038093E9
:1019C0000403909305030E9478046093FE027093D1
:1019D000FF0280930003909301030E9478046B013F
:1019E0007C018FE491E00E9498084AE061E070E099
:1019F00080E090E00E94AA0886E591E00E949808A5
:101A00004AE0C701B6010E94AA0888E591E00E9459
:101A100098088091020390910303A0910403B09170
:101A20000503A7019601281B390B4A0B5B0BCA0162
:101A3000B9014AE00E94AA0888E591E00E9498084E
:101A40008091020390910303A0910403B0910503D8
:101A5000C0900603D0900703E0900803F0900903BC
:101A6000BC01CD016C197D098E099F094AE00E94D5
:101A7000AA088AE591E00E9498080E9478044AE04A
:101A80000E94AA088CE591E00E94980883E691E004
:101A90000E94980865E070E080E090E00E94710884
:101AA0000E947804609302037093030380930403FD
:101AB000909305038091370290913802A0913902EA
:101AC000B0913A02892B8A2B8B2B09F44EC00E94CD
:101AD00053046B017C0180913B0290913C02A091E8
:101AE0003D02B0913E02B701A601481B590B6A0B9B
:101AF0007B0B8091370290913802A0913902B0910E
:101B00003A02481759076A077B0778F120911502B6
:101B100080911F0290912002A0912102B091220297
:101B2000222321F00196A11DB11D03C00197A10937
:101B3000B10980931F0290932002A0932102B093D9
:101B4000220240911F025091200260912102709167
:101B5000220283E192E00E94F902C0923B02D092FD
:101B60003C02E0923D02F0923E020E94D400B5CECB
:101B70000E94FA0D08F481E00895E89409C097FBEB
:101B80003EF490958095709561957F4F8F4F9F4F54
:101B90009923A9F0F92F96E9BB279395F695879598
:101BA00077956795B795F111F8CFFAF4BB0F11F45B
:101BB00060FF1BC06F5F7F4F8F4F9F4F16C0882302
:101BC00011F096E911C0772321F09EE8872F762F38
:101BD00005C0662371F096E8862F70E060E02AF079
:101BE0009A95660F771F881FDAF7880F9695879565
:101BF00097F90895990F0008550FAA0BE0E8FEEF3A
:101C000016161706E807F907C0F012161306E407C0
:101C1000F50798F0621B730B840B950B39F40A26B9
:101C200061F0232B242B252B21F408950A2609F497
:101C3000A140A6958FEF811D811D08950E94310E50
:101C40000C94A20E0E94940E38F00E949B0E20F07D
:101C5000952311F00C948B0E0C94910E11240C947E
:101C6000D60E0E94B30E70F3959FC1F3950F50E00E
:101C7000551F629FF001729FBB27F00DB11D639F3E
:101C8000AA27F00DB11DAA1F649F6627B00DA11DE4
:101C9000661F829F2227B00DA11D621F739FB00D8A
:101CA000A11D621F839FA00D611D221F749F3327FA
:101CB000A00D611D231F849F600D211D822F762F93
:101CC0006A2F11249F5750409AF0F1F088234AF070
:101CD000EE0FFF1FBB1F661F771F881F91505040DC
:101CE000A9F79E3F510580F00C948B0E0C94D60EF4
:101CF0005F3FE4F3983ED4F3869577956795B79563
:101D0000F795E7959F5FC1F7FE2B880F911D96957C
:101D1000879597F9089597F99F6780E870E060E0EC
:101D200008959FEF80EC089500240A941616170674
:101D300018060906089500240A94121613061406BC
:101D400005060895092E0394000C11F4882352F01F
:101D5000BB0F40F4BF2B11F460FF04C06F5F7F4FD7
:101D60008F4F9F4F089557FD9058440F551F59F0BE
:101D70005F3F71F04795880F97FB991F61F09F3F78
:101D800079F087950895121613061406551FF2CFA1
:101D90004695F1DF08C0161617061806991FF1CFF1
:101DA00086957105610508940895E894BB27662718
:101DB0007727CB0197F90895A1E21A2EAA1BBB1B26
:101DC000FD010DC0AA1FBB1FEE1FFF1FA217B30707
:101DD000E407F50720F0A21BB30BE40BF50B661F1D
:101DE000771F881F991F1A9469F7609570958095E1
:101DF00090959B01AC01BD01CF0108955058BB27C0
:101E0000AA270E94160F0C94A20E0E94940E38F07E
:101E10000E949B0E20F039F49F3F19F426F40C9495
:101E2000910E0EF4E095E7FB0C948B0EE92F0E94C7
:101E3000B30E58F3BA17620773078407950720F0AB
:101E400079F4A6F50C94D50E0EF4E0950B2EBA2F6E
:101E5000A02D0B01B90190010C01CA01A0011124B0
:101E6000FF27591B99F0593F50F4503E68F11A165C
:101E7000F040A22F232F342F4427585FF3CF4695ED
:101E800037952795A795F0405395C9F77EF41F160F
:101E9000BA0B620B730B840BBAF09150A1F0FF0FD9
:101EA000BB1F661F771F881FC2F70EC0BA0F621FC5
:101EB000731F841F48F4879577956795B795F795B5
:101EC0009E3F08F0B0CF9395880F08F09927EE0F4A
:101ED0009795879508950E947F0F0C94A20E0E94FB
:101EE0009B0E58F00E94940E40F029F45F3F29F0B9
:101EF0000C948B0E51110C94D60E0C94910E0E94E2
:101F0000B30E68F39923B1F3552391F3951B550B49
:101F1000BB27AA2762177307840738F09F5F5F4FBC
:101F2000220F331F441FAA1FA9F335D00E2E3AF0FB
:101F3000E0E832D091505040E695001CCAF72BD013
:101F4000FE2F29D0660F771F881FBB1F2617370764
:101F50004807AB07B0E809F0BB0B802DBF01FF2796
:101F600093585F4F3AF09E3F510578F00C948B0EDA
:101F70000C94D60E5F3FE4F3983ED4F386957795A4
:101F80006795B795F7959F5FC9F7880F911D96954F
:101F9000879597F90895E1E0660F771F881FBB1FAB
:101FA000621773078407BA0720F0621B730B840B58
:101FB000BA0BEE1F88F7E09508950E94E40F68942D
:101FC000B1110C94D60E08950E94BB0E88F09F5755
:101FD00098F0B92F9927B751B0F0E1F0660F771F4D
:101FE000881F991F1AF0BA95C9F714C0B13091F043
:101FF0000E94D50EB1E008950C94D50E672F782F6E
:102000008827B85F39F0B93FCCF386957795679507
:10201000B395D9F73EF490958095709561957F4F73
:102020008F4F9F4F08950E94FA0D08F48FEF089587
:1020300019F416F40C94910E0C945E100E94BB0ED1
:10204000B8F39923C9F3B6F39F57550B87FF0E9446
:102050006C100024A0E640EA9001805856959795B0
:1020600028F4805C660F771F881F20F0261737073B
:10207000480730F4621B730B840B202931294A2B4B
:10208000A69517940794202531254A2758F7660FFF
:10209000771F881F20F026173707480730F4620B98
:1020A000730B840B200D311D411DA09581F7B901E3
:1020B000842F9158880F9695879508959F3F31F00A
:1020C000915020F4879577956795B795880F911D66
:1020D0009695879597F9089591505040660F771F10
:1020E000881FD2F70895052E97FB1EF400940E94D6
:1020F0008A1057FD07D00E94DC0E07FC03D04EF477
:102100000C948A1050954095309521953F4F4F4F34
:102110005F4F089590958095709561957F4F8F4F93
:102120009F4F0895EE0FFF1F0590F491E02D099445
:0E21300081E090E0F8940C949D10F894FFCF9D
:10213E0000000000EB083C0897003209C800A6001A
:10214E00BA000000000086017201980146016A0182
:10215E005601470100000000FA03CC031704F902F0
:10216E00E302AB028A0256023502DF019B01564D95
:10217E004450565F317C315F564D4450560A0056DE
:10218E004D4450455F003A323A007C005F564D4454
:06219E005045000D0A008F
:107E0000112484B714BE81FFF0D085E080938100F7
:107E100082E08093C00088E18093C10086E0809377
:107E2000C20080E18093C4008EE0C9D0259A86E02C
:107E300020E33CEF91E0309385002093840096BBD3
:107E4000B09BFECF1D9AA8958150A9F7CC24DD24C4
:107E500088248394B5E0AB2EA1E19A2EF3E0BF2EE7
:107E6000A2D0813461F49FD0082FAFD0023811F036
:107E7000013811F484E001C083E08DD089C08234E0
:107E800011F484E103C0853419F485E0A6D080C0E4
:107E9000853579F488D0E82EFF2485D0082F10E0AE
:107EA000102F00270E291F29000F111F8ED06801E7
:107EB0006FC0863521F484E090D080E0DECF843638
:107EC00009F040C070D06FD0082F6DD080E0C81688
:107ED00080E7D80618F4F601B7BEE895C0E0D1E017
:107EE00062D089930C17E1F7F0E0CF16F0E7DF06D8
:107EF00018F0F601B7BEE89568D007B600FCFDCFD4
:107F0000A601A0E0B1E02C9130E011968C91119780
:107F100090E0982F8827822B932B1296FA010C0160
:107F200087BEE89511244E5F5F4FF1E0A038BF0790
:107F300051F7F601A7BEE89507B600FCFDCF97BE46
:107F4000E89526C08437B1F42ED02DD0F82E2BD052
:107F50003CD0F601EF2C8F010F5F1F4F84911BD097
:107F6000EA94F801C1F70894C11CD11CFA94CF0C13
:107F7000D11C0EC0853739F428D08EE10CD085E9AC
:107F80000AD08FE07ACF813511F488E018D01DD067
:107F900080E101D065CF982F8091C00085FFFCCF94
:107FA0009093C60008958091C00087FFFCCF809118
:107FB000C00084FD01C0A8958091C6000895E0E648
:107FC000F0E098E1908380830895EDDF803219F02E
:107FD00088E0F5DFFFCF84E1DECF1F93182FE3DFCA
:107FE0001150E9F7F2DF1F91089580E0E8DFEE27F6
:047FF000FF270994CA
:027FFE00040479
:0400000300007E007B
:00000001FF