:10000000FAC0000026C1000024C1000022C1000087
:1000100020C100001EC100001CC100001AC1000068
:1000200018C1000016C1000014C1000012C1000078
:1000300010C100000EC100000CC100000AC1000088
:1000400008C1000006C1000004C1000002C1000098
:1000500000C10000FEC00000FCC00000D5C40000CC
:10006000F8C000009BC4000070C40000F2C0000093
:10007000F0C00000EEC00000ECC00000EAC00000CC
:10008000E8C00000E6C00000E4C00000E2C00000DC
:10009000E0C00000DEC00000DCC00000FFC40000C3
:1000A000D8C00000D6C00000D4C00000D2C00000FC
:1000B000D0C00000CEC00000CCC00000CAC000000C
:1000C000C8C00000C6C00000C4C00000C2C000001C
:1000D000C0C00000BEC00000BCC00000BAC000002C
:1000E000B8C00000B401B701A601AA01AE01EE013B
:1000F000BB01BF01C501C901CD01D301D701DB019E
:10010000EE01E101E501E9010000220025002800DF
:100110002B002E003100340002010000050108010F
:100120000B0105050505070508080808020202027B
:100130000A0A080804040404010101010101010183
:100140000303030303030303040707070C0C0C0C4E
:100150000C0C0C0C02020202060606060606060637
:100160000B0B0B0B0B0B0B0B0102102020080810C4
:100170002040102040800201020108040201010217
:1001800004081020408080402010080402018004F0
:10019000020180402010080402010804020101024B
:1001A0000408102040800102040810204080000054
:1001B0000A0B02090C0D0E080703040100000000E1
:1001C000000000000000000000000000000000002F
:1001D00000000000000000000000121110000000EC
:1001E000000000000000000000000000000000000F
:1001F000000000007F0611241FBECFEFD1E2DEBF5A
:10020000CDBF00E00CBF23E0A6E3B2E001C01D9229
:10021000A83FB207E1F712E0A0E0B2E0ECEEF0E1B7
:1002200000E00BBF02C007900D92A633B107D9F7CB
:1002300010E0CBEFD0E000E005C021970109802F4E
:10024000FE0146D7CA3FD10780E00807B1F7C5D500
:100250004BC7D6CE382F2091F2029091F102213275
:1002600008F049C08091CE028111FCCF42E040935A
:10027000CE023093CD023FEF3093CC021092CB02EE
:100280002093CA02A1EDB2E04AEA52E0FA013E2F01
:10029000341B321718F43D913193F9CF1092A90213
:1002A0002091A902990F922B9093A9029091A802F4
:1002B000913061F41092A8029091A9029093BB0032
:1002C0009091BC0093FDF8CF95EC01C095EE909312
:1002D000BC009091CE029230E1F39091CC029F3F0E
:1002E00079F08091CC02803241F08091CC02803351
:1002F00031F084E005C081E003C082E001C083E00A
:100300001092D0021092F2021092CF02089590E063
:10031000FC01E255FE4F4491FC01E859FE4F249147
:10032000FC01EE5DFE4F9491992309F465C04423CE
:1003300009F454C050E0FA013197E231F10508F0B8
:100340004DC08827EE58FF4F8F4FC2C68091800066
:100350008F7707C0809180008F7D03C080918000DF
:10036000877F809380003AC084B58F7702C084B5C0
:100370008F7D84BD33C08091B0008F7703C08091A2
:10038000B0008F7D8093B00029C0809190008F775E
:1003900007C0809190008F7D03C080919000877F7F
:1003A000809390001BC08091A0008F7707C0809140
:1003B000A0008F7D03C08091A000877F8093A00064
:1003C0000DC0809120018F7707C0809120018F7D23
:1003D00003C080912001877F80932001E92FF0E006
:1003E000EE0FFF1FE85FFE4FA591B4918FB7F89411
:1003F000EC912E2B2C938FBF0895CF92DF92EF922A
:10040000FF920F931F93CF93DF936C017A018B01BF
:10041000C0E0D0E0CE15DF0589F0D8016D918D01E7
:10042000D601ED91FC910190F081E02DC601199566
:10043000892B11F47E0102C02196ECCFC701DF9118
:10044000CF911F910F91FF90EF90DF90CF90089583
:100450008091A70290E02091A602821B9109089545
:10046000FC01538D448D252F30E0842F90E0821BBA
:10047000930B541710F0CF96089501970895FC013F
:10048000918D828D981761F0828DDF01A80FB11DCB
:100490005D968C91928D9F5F9F73928F90E00895EF
:1004A0008FEF9FEF0895FC01918D828D981731F0A9
:1004B000828DE80FF11D858D90E008958FEF9FEFFD
:1004C0000895FC01918D228D892F90E0805C9F4FD3
:1004D000821B91098F739927089583EF92E0F1DFD2
:1004E00021E0892B09F420E0822F0895FC01848DFE
:1004F000DF01A80FB11DA35ABF4F2C91848D90E04E
:1005000001968F739927848FA689B7892C93A08928
:10051000B1898C9180648C93938D848D981306C0DF
:100520000288F389E02D80818F7D80830895EF928A
:10053000FF920F931F93CF93DF93EC0181E0888F9D
:100540009B8D8C8D981305C0E889F989808185FD84
:1005500023C0F62E0B8D10E00F5F1F4F0F73112776
:10056000E02E8C8DE8120BC00FB607FCFACFE8899D
:10057000F989808185FFF5CFCE01B8DFF2CF8B8D71
:10058000FE01E80FF11DE35AFF4FF0820B8FEA895D
:10059000FB898081806207C0EE89FF896083E889DA
:1005A000F98980818064808381E090E0DF91CF9140
:1005B0001F910F91FF90EF900895CF93DF93EC017F
:1005C000888D8823C1F0EA89FB89808185FD05C07B
:1005D000A889B9898C9186FD0EC00FB607FCF5CFAE
:1005E000808185FFF2CFA889B9898C9185FFEDCFF5
:1005F000CE017CDFE8CFDF91CF91089580E090E0DD
:10060000892B19F06ADF811125C080E090E0892BE9
:1006100041F080E090E0892B21F00E9400008111E0
:100620001CC080E090E0892B41F080E090E0892BB5
:1006300021F00E940000811113C080E090E0892B1E
:10064000A1F080E090E0892B81F00E9400008111F0
:100650000AC008950E940000D8CF0E940000E1CF98
:100660000E940000EACF0C94000008953FB7F89470
:100670008091820290918302A0918402B0918502C0
:1006800026B5A89B05C02F3F19F00196A11DB11DED
:100690003FBFBA2FA92F982F8827820F911DA11D28
:1006A000B11DBC01CD0142E0660F771F881F991F65
:1006B0004A95D1F708958F929F92AF92BF92CF92B1
:1006C000DF92EF92FF926B017C01D0DF4B015C0166
:1006D000C114D104E104F104E9F0C8DFDC01CB016D
:1006E00088199909AA09BB09883E9340A105B1055B
:1006F00078F321E0C21AD108E108F10888EE880EEB
:1007000083E0981EA11CB11CC114D104E104F104C2
:1007100021F7DECFFF90EF90DF90CF90BF90AF90AA
:100720009F908F9008952FB7F89460917E027091FA
:100730007F0280918002909181022FBF089585ED04
:100740008093BC008091BC0084FDFCCF1092CE024F
:10075000089540915802262F30E0240F311D213298
:100760003105DCF42091CE022430C9F4FC0180E094
:1007700090E0861758F4309158022191DC01AA5C70
:10078000BD4FA30FB11D2C930196F3CF809158025A
:10079000680F6093580280E0089581E0089582E038
:1007A00008950895E091A6028091A702E81730F419
:1007B000F0E0EA57FD4F808190E008958FEF9FEFC2
:1007C00008959091A6028091A702981750F4E92FFE
:1007D000F0E0EA57FD4F208130E09F5F9093A60242
:1007E00002C02FEF3FEFC9010895CF92DF92EF9241
:1007F000FF920F931F93CF93DF937C01262F972FA8
:100800008A018091CF02882391F0C62FD72F6E01E5
:10081000C40ED51ECC15DD0569F06991D701ED91A7
:10082000FC910190F081E02DC7011995F3CF642F61
:10083000822F8FDFC801DF91CF911F910F91FF9021
:10084000EF90DF90CF900895CF93DF931F92CDB7B5
:10085000DEB769832091CF022223D1F02091F202EA
:10086000203240F021E030E0FC013383228380E03D
:1008700090E014C08091D002E82FF0E0EF52FD4FDD
:10088000998190838F5F8093D0028093F20204C09D
:1008900061E0CE0101965DDF81E090E00F90DF9195
:1008A000CF910895089580E090E008950F931F93ED
:1008B000CF93DF93FC012081222309F1EC0133DF88
:1008C00009811A812B813C81DC01CB01801B910BBA
:1008D000A20BB30B0D811E812F81388580179107E4
:1008E000A207B30760F01FDF69837A838B839C8341
:1008F000E985FA85DF91CF911F910F911994DF91CE
:10090000CF911F910F91089581E08093CF028BE0EA
:100910008093F1021092D0021092F20264E086ED10
:1009200093E092DF81E096CC81E08093CF028AE071
:100930008093F1021092D0021092F20263E086EDF1
:1009400093E082DF81E086CCCBD31F920F920FB66B
:100950000F9211240BB60F922F933F934F935F93F7
:100960006F937F938F939F93AF93BF93EF93FF9377
:1009700083EF92E0BBDDFF91EF91BF91AF919F912B
:100980008F917F916F915F914F913F912F910F9038
:100990000BBE0F900FBE0F901F9018951F920F92D5
:1009A0000FB60F9211240BB60F922F938F939F9334
:1009B000EF93FF93E0910303F09104038081E091B2
:1009C0000903F0910A0382FD12C0908180910C030B
:1009D0008F5F8F7320910D03821751F0E0910C030C
:1009E000F0E0ED50FD4F958F80930C0301C08081A6
:1009F000FF91EF919F918F912F910F900BBE0F90D0
:100A00000FBE0F901F9018951F920F920FB60F9266
:100A100011242F933F938F939F93AF93BF93809114
:100A20007E0290917F02A0918002B091810230916C
:100A30007D0223E0230F2D3720F40196A11DB11D67
:100A400005C026E8230F0296A11DB11D20937D024B
:100A500080937E0290937F02A0938002B0938102E4
:100A60008091820290918302A0918402B0918502CC
:100A70000196A11DB11D8093820290938302A093E1
:100A80008402B0938502BF91AF919F918F913F9166
:100A90002F910F900FBE0F901F9018951F920F92DD
:100AA0000FB60F9211240BB60F922F933F934F93D3
:100AB0005F936F937F938F939F93AF93BF93EF93C6
:100AC000FF938091B900887F803609F49CC068F557
:100AD000883209F45BC090F4803109F454C038F4D2
:100AE000882309F4F6C0883009F44DC0F5C0883178
:100AF00009F44CC0803209F45DC0EEC0803409F4C2
:100B000068C048F4803309F455C0883309F0E4C064
:100B10008093CC02D8C0803509F44FC0883509F4E1
:100B20005DC0883409F0D8C0D6C0883909F4C7C080
:100B3000A8F4883709F467C038F4883609F463C02C
:100B4000803709F460C0C8C0883809F4B8C080395B
:100B500009F45FC0803809F0BFC05BC0803B09F476
:100B600086C038F4803A09F466C0883A09F47FC038
:100B7000B3C0803C09F4A7C0883C09F4A4C0883BFA
:100B800009F48AC0A9C08091A90210C09091CB023B
:100B90008091CA02981770F5E091CB0281E08E0F28
:100BA0008093CB02F0E0E655FD4F80818093BB003F
:100BB00085EC86C08093CC028EC0E091CB0281E0B0
:100BC0008E0F8093CB028091BB00F0E0E655FD4F85
:100BD00080839091CB028091CA026EC0E091CB02DB
:100BE00081E08E0F8093CB028091BB00F0E0E65550
:100BF000FD4F80838091CD0281116DC081E0809393
:100C0000A80284EA61C083E08093CE0210927C0245
:100C1000CFCF80917C02803208F051C0E0917C02FD
:100C200081E08E0F80937C028091BB00F0E0E45A5B
:100C3000FD4F8083BDCF85EC8093BC001092CE0227
:100C400080917C02803230F4E0917C02F0E0E45A42
:100C5000FD4F108260917C0270E0E0915A02F091A9
:100C60005B028CE592E0199510927C0235C084E01D
:100C70008093CE021092590210925802E0915602CF
:100C8000F0915702199580915802811105C081E0B9
:100C90008093580210923602E091590281E08E0F43
:100CA00080935902F0E0EA5CFD4F80818093BB00A5
:100CB0009091590280915802981708F479CF85E8ED
:100CC0008093BC0009C085EC8093BC001092CE02DA
:100CD00003C01092CC0233DDFF91EF91BF91AF9131
:100CE0009F918F917F916F915F914F913F912F9144
:100CF0000F900BBE0F900FBE0F901F901895E3EF53
:100D0000F2E01382128288EE93E0A0E0B0E08483E8
:100D10009583A683B78324E032E03183208325ECDA
:100D200030E03587248724EC30E03787268720ECB5
:100D300030E0318B208B21EC30E0338B228B22ECA6
:100D400030E0358B248B26EC30E0378B268B118EF0
:100D5000128E138E148EE0E9F3E01682178210864D
:100D60001186128613861486158616861786108AB3
:100D7000118A128A138A148A158AE6EDF3E0138227
:100D8000128284839583A683B78386E192E0918360
:100D90008083EDEEF3E021E0208311821282138242
:100DA000148280EA9FE0A0E0B0E085839683A78369
:100DB000B08744E954E052874187E2EEF3E02083B4
:100DC000118212821382148285839683A783B0874F
:100DD00084E894E0928781870895789484B582604E
:100DE00084BD84B5816084BD85B5826085BD85B5CF
:100DF000816085BD80916E00816080936E0010924D
:100E000081008091810082608093810080918100C7
:100E10008160809381008091800081608093800058
:100E20008091B10084608093B1008091B0008160B6
:100E30008093B000809191008260809391008091B6
:100E400091008160809391008091900081608093F7
:100E500090008091A10082608093A1008091A10008
:100E600081608093A1008091A00081608093A000A8
:100E70008091210182608093210180912101816014
:100E800080932101809120018160809320018091D5
:100E90007A00846080937A0080917A0082608093E7
:100EA0007A0080917A00816080937A0080917A0044
:100EB000806880937A001092C1001092D203109241
:100EC000D3031092D4031092D50310929203109280
:100ED0009303109294031092950325DC6B017C011F
:100EE0004B015C0188EB880E8BE0981EA11CB11CA5
:100EF0001ADC6C157D058E059F0528F08616970671
:100F0000A806B906A8F768EE73E080E090E0D3DBAE
:100F1000E0910303F091040382E08083E091FF02FB
:100F2000F09100031082E0910103F091020380E14F
:100F3000808310920B03E0910703F091080386E091
:100F40008083E0910503F0910603808180618083B6
:100F5000E0910503F0910603808188608083E09131
:100F60000503F0910603808180688083E09105038A
:100F7000F091060380818F7D8083D5DB609392039F
:100F800070939303809394039093950340E150E012
:100F900064E272E083EF92E030DAC5DB6B017C0142
:100FA0004B015C018AE0880E911CA11CB11CBBDBCB
:100FB0006C157D058E059F0528F086169706A806F8
:100FC000B906A8F781E08093A6031092A6021092BA
:100FD000A7021092D0021092F2021092CE028093D9
:100FE000CD021092A80284E192D985E190D9809136
:100FF000B9008E7F8093B9008091B9008D7F809376
:10100000B90088E48093B80085E48093BC00D1E007
:10101000FF24FA9485EEE82E95ECD92E06E812E02E
:101020008DEE93E043DC82EE93E040DC64E670E01A
:1010300080E090E040DB8091CE028111FCCFD09324
:10104000CE02D093CD02F092CC021092CB0210923D
:10105000CA02D093A9028091A90286618093A90255
:101060008091A802813069F41092A8028091A902AF
:101070008093BB008091BC0083FDF8CFD092BC0070
:1010800002C0E092BC008091CE028130E1F38091F9
:10109000CB02811103C0C091CB0201C0C1E0AAEA1A
:1010A000B2E0E6E8F2E08E2F801B8C1718F48D91E9
:1010B0008193F9CF1092A602C093A7028091A60255
:1010C000C81721F086ED93E07CDBF8CF97DAA8CF44
:1010D000EE0FFF1F881F8BBF0790F691E02D19942C
:0C10E00081E090E0F89400C0F894FFCF8D
:1010EC00000000009702FD013002DD0261023F02A8
:1010FC005302000000002404F5035304D10328021A
:10110C00E103D203564D4450565F317C315F564D4E
:06111C004450560A0000D9
:00000001FF
